{
  "_format": "hh-sol-artifact-1",
  "contractName": "TheContract",
  "sourceName": "contracts/TheContract.sol",
  "abi": [
    {
      "inputs": [],
      "stateMutability": "nonpayable",
      "type": "constructor"
    },
    {
      "inputs": [
        {
          "internalType": "string",
          "name": "_name",
          "type": "string"
        }
      ],
      "name": "addCandidates",
      "outputs": [],
      "stateMutability": "nonpayable",
      "type": "function"
    },
    {
      "inputs": [],
      "name": "checkElectionState",
      "outputs": [
        {
          "internalType": "bool",
          "name": "",
          "type": "bool"
        }
      ],
      "stateMutability": "nonpayable",
      "type": "function"
    },
    {
      "inputs": [],
      "name": "electionState",
      "outputs": [
        {
          "internalType": "bool",
          "name": "",
          "type": "bool"
        }
      ],
      "stateMutability": "view",
      "type": "function"
    },
    {
      "inputs": [],
      "name": "getCandidates",
      "outputs": [
        {
          "components": [
            {
              "internalType": "uint256",
              "name": "id",
              "type": "uint256"
            },
            {
              "internalType": "string",
              "name": "name",
              "type": "string"
            },
            {
              "internalType": "uint256",
              "name": "numberOfVotes",
              "type": "uint256"
            }
          ],
          "internalType": "struct TheContract.Candidate[]",
          "name": "",
          "type": "tuple[]"
        }
      ],
      "stateMutability": "view",
      "type": "function"
    },
    {
      "inputs": [],
      "name": "getTotalCandidates",
      "outputs": [
        {
          "internalType": "uint256",
          "name": "",
          "type": "uint256"
        }
      ],
      "stateMutability": "view",
      "type": "function"
    },
    {
      "inputs": [
        {
          "internalType": "uint256",
          "name": "Id",
          "type": "uint256"
        }
      ],
      "name": "getVotes",
      "outputs": [
        {
          "internalType": "uint256",
          "name": "",
          "type": "uint256"
        }
      ],
      "stateMutability": "view",
      "type": "function"
    },
    {
      "inputs": [
        {
          "internalType": "uint256",
          "name": "",
          "type": "uint256"
        }
      ],
      "name": "listOfCandidates",
      "outputs": [
        {
          "internalType": "uint256",
          "name": "id",
          "type": "uint256"
        },
        {
          "internalType": "string",
          "name": "name",
          "type": "string"
        },
        {
          "internalType": "uint256",
          "name": "numberOfVotes",
          "type": "uint256"
        }
      ],
      "stateMutability": "view",
      "type": "function"
    },
    {
      "inputs": [
        {
          "internalType": "uint256",
          "name": "",
          "type": "uint256"
        }
      ],
      "name": "listOfVoters",
      "outputs": [
        {
          "internalType": "address",
          "name": "",
          "type": "address"
        }
      ],
      "stateMutability": "view",
      "type": "function"
    },
    {
      "inputs": [],
      "name": "owner",
      "outputs": [
        {
          "internalType": "address",
          "name": "",
          "type": "address"
        }
      ],
      "stateMutability": "view",
      "type": "function"
    },
    {
      "inputs": [],
      "name": "resetVoters",
      "outputs": [],
      "stateMutability": "nonpayable",
      "type": "function"
    },
    {
      "inputs": [
        {
          "internalType": "bool",
          "name": "state",
          "type": "bool"
        }
      ],
      "name": "setElectionState",
      "outputs": [],
      "stateMutability": "nonpayable",
      "type": "function"
    },
    {
      "inputs": [
        {
          "internalType": "uint256",
          "name": "timeDuration",
          "type": "uint256"
        },
        {
          "internalType": "string[]",
          "name": "candiatesList",
          "type": "string[]"
        }
      ],
      "name": "start",
      "outputs": [],
      "stateMutability": "nonpayable",
      "type": "function"
    },
    {
      "inputs": [],
      "name": "timeLeft",
      "outputs": [
        {
          "internalType": "uint256",
          "name": "",
          "type": "uint256"
        }
      ],
      "stateMutability": "view",
      "type": "function"
    },
    {
      "inputs": [
        {
          "internalType": "uint256",
          "name": "id",
          "type": "uint256"
        }
      ],
      "name": "vote",
      "outputs": [],
      "stateMutability": "nonpayable",
      "type": "function"
    },
    {
      "inputs": [
        {
          "internalType": "address",
          "name": "",
          "type": "address"
        }
      ],
      "name": "voter",
      "outputs": [
        {
          "internalType": "bool",
          "name": "",
          "type": "bool"
        }
      ],
      "stateMutability": "view",
      "type": "function"
    },
    {
      "inputs": [
        {
          "internalType": "address",
          "name": "voterAddress",
          "type": "address"
        }
      ],
      "name": "voterStatus",
      "outputs": [
        {
          "internalType": "bool",
          "name": "",
          "type": "bool"
        }
      ],
      "stateMutability": "view",
      "type": "function"
    },
    {
      "inputs": [],
      "name": "votingEnd",
      "outputs": [
        {
          "internalType": "uint256",
          "name": "",
          "type": "uint256"
        }
      ],
      "stateMutability": "view",
      "type": "function"
    },
    {
      "inputs": [],
      "name": "votingStart",
      "outputs": [
        {
          "internalType": "uint256",
          "name": "",
          "type": "uint256"
        }
      ],
      "stateMutability": "view",
      "type": "function"
    }
  ],
  "bytecode": "0x608060405234801561001057600080fd5b50336000806101000a81548173ffffffffffffffffffffffffffffffffffffffff021916908373ffffffffffffffffffffffffffffffffffffffff160217905550611e57806100606000396000f3fe608060405234801561001057600080fd5b50600436106101165760003560e01c806362604e96116100a257806392d7df4a1161007157806392d7df4a146102995780639a53cbea146102cb578063af0dbe54146102fb578063f4e3468d1461032b578063ff9810991461034757610116565b806362604e96146102235780636f330f0f1461023f57806385a386351461025d5780638da5cb5b1461027b57610116565b80631300a6d1116100e95780631300a6d11461019157806317af1fab146101af5780632280043d146101cb578063553bd397146101e9578063576cc4f2146101f357610116565b80630121b93f1461011b57806306a49fce146101375780630deb56ab14610155578063101158af14610173575b600080fd5b61013560048036038101906101309190611023565b610377565b005b61013f6105ae565b60405161014c9190611201565b60405180910390f35b61015d6106b3565b60405161016a9190611232565b60405180910390f35b61017b6106c0565b6040516101889190611232565b60405180910390f35b6101996106c6565b6040516101a69190611232565b60405180910390f35b6101c960048036038101906101c49190611285565b61073d565b005b6101d36107e8565b6040516101e091906112c1565b60405180910390f35b6101f16107fb565b005b61020d6004803603810190610208919061133a565b61094d565b60405161021a91906112c1565b60405180910390f35b61023d6004803603810190610238919061149c565b6109a3565b005b610247610aff565b60405161025491906112c1565b60405180910390f35b610265610b3c565b6040516102729190611232565b60405180910390f35b610283610b42565b60405161029091906114f4565b60405180910390f35b6102b360048036038101906102ae9190611023565b610b66565b6040516102c293929190611559565b60405180910390f35b6102e560048036038101906102e09190611023565b610c28565b6040516102f291906114f4565b60405180910390f35b6103156004803603810190610310919061133a565b610c67565b60405161032291906112c1565b60405180910390f35b6103456004803603810190610340919061167d565b610c87565b005b610361600480360381019061035c9190611023565b610e72565b60405161036e9190611232565b60405180910390f35b600660009054906101000a900460ff166103c6576040517f08c379a00000000000000000000000000000000000000000000000000000000081526004016103bd9061174b565b60405180910390fd5b6103ce610aff565b61040d576040517f08c379a0000000000000000000000000000000000000000000000000000000008152600401610404906117b7565b60405180910390fd5b6104163361094d565b15610456576040517f08c379a000000000000000000000000000000000000000000000000000000000815260040161044d90611823565b60405180910390fd5b60008111801561046b57506002805490508111155b6104aa576040517f08c379a00000000000000000000000000000000000000000000000000000000081526004016104a19061188f565b60405180910390fd5b60026001826104b991906118de565b815481106104ca576104c9611912565b5b906000526020600020906003020160020160008154809291906104ec90611941565b919050555060018060003373ffffffffffffffffffffffffffffffffffffffff1673ffffffffffffffffffffffffffffffffffffffff16815260200190815260200160002060006101000a81548160ff0219169083151502179055506003339080600181540180825580915050600190039060005260206000200160009091909190916101000a81548173ffffffffffffffffffffffffffffffffffffffff021916908373ffffffffffffffffffffffffffffffffffffffff16021790555050565b60606002805480602002602001604051908101604052809291908181526020016000905b828210156106aa57838290600052602060002090600302016040518060600160405290816000820154815260200160018201805461060f906119b8565b80601f016020809104026020016040519081016040528092919081815260200182805461063b906119b8565b80156106885780601f1061065d57610100808354040283529160200191610688565b820191906000526020600020905b81548152906001019060200180831161066b57829003601f168201915b50505050508152602001600282015481525050815260200190600101906105d2565b50505050905090565b6000600280549050905090565b60045481565b6000600660009054906101000a900460ff16610717576040517f08c379a000000000000000000000000000000000000000000000000000000000815260040161070e9061174b565b60405180910390fd5b6005544210610729576000905061073a565b4260055461073791906118de565b90505b90565b60008054906101000a900473ffffffffffffffffffffffffffffffffffffffff1673ffffffffffffffffffffffffffffffffffffffff163373ffffffffffffffffffffffffffffffffffffffff16146107cb576040517f08c379a00000000000000000000000000000000000000000000000000000000081526004016107c290611a35565b60405180910390fd5b80600660006101000a81548160ff02191690831515021790555050565b600660009054906101000a900460ff1681565b60008054906101000a900473ffffffffffffffffffffffffffffffffffffffff1673ffffffffffffffffffffffffffffffffffffffff163373ffffffffffffffffffffffffffffffffffffffff1614610889576040517f08c379a000000000000000000000000000000000000000000000000000000000815260040161088090611a35565b60405180910390fd5b60005b60038054905081101561093c57600060016000600384815481106108b3576108b2611912565b5b9060005260206000200160009054906101000a900473ffffffffffffffffffffffffffffffffffffffff1673ffffffffffffffffffffffffffffffffffffffff1673ffffffffffffffffffffffffffffffffffffffff16815260200190815260200160002060006101000a81548160ff021916908315150217905550808060010191505061088c565b506003600061094b9190610f00565b565b6000600160008373ffffffffffffffffffffffffffffffffffffffff1673ffffffffffffffffffffffffffffffffffffffff16815260200190815260200160002060009054906101000a900460ff169050919050565b60008054906101000a900473ffffffffffffffffffffffffffffffffffffffff1673ffffffffffffffffffffffffffffffffffffffff163373ffffffffffffffffffffffffffffffffffffffff1614610a31576040517f08c379a0000000000000000000000000000000000000000000000000000000008152600401610a2890611a35565b60405180910390fd5b610a39610aff565b610a78576040517f08c379a0000000000000000000000000000000000000000000000000000000008152600401610a6f906117b7565b60405180910390fd5b600260405180606001604052806001600280549050610a979190611a55565b815260200183815260200160008152509080600181540180825580915050600190039060005260206000209060030201600090919091909150600082015181600001556020820151816001019081610aef9190611c35565b5060408201518160020155505050565b600080610b0a6106c6565b1115610b195760019050610b39565b6000600660006101000a81548160ff021916908315150217905550600090505b90565b60055481565b60008054906101000a900473ffffffffffffffffffffffffffffffffffffffff1681565b60028181548110610b7657600080fd5b9060005260206000209060030201600091509050806000015490806001018054610b9f906119b8565b80601f0160208091040260200160405190810160405280929190818152602001828054610bcb906119b8565b8015610c185780601f10610bed57610100808354040283529160200191610c18565b820191906000526020600020905b815481529060010190602001808311610bfb57829003601f168201915b5050505050908060020154905083565b60038181548110610c3857600080fd5b906000526020600020016000915054906101000a900473ffffffffffffffffffffffffffffffffffffffff1681565b60016020528060005260406000206000915054906101000a900460ff1681565b60008054906101000a900473ffffffffffffffffffffffffffffffffffffffff1673ffffffffffffffffffffffffffffffffffffffff163373ffffffffffffffffffffffffffffffffffffffff1614610d15576040517f08c379a0000000000000000000000000000000000000000000000000000000008152600401610d0c90611a35565b60405180910390fd5b600660009054906101000a900460ff1615610d65576040517f08c379a0000000000000000000000000000000000000000000000000000000008152600401610d5c90611d53565b60405180910390fd5b6001600660006101000a81548160ff02191690831515021790555060026000610d8e9190610f21565b610d966107fb565b60005b8151811015610e485760026040518060600160405280600184610dbc9190611a55565b8152602001848481518110610dd457610dd3611912565b5b6020026020010151815260200160008152509080600181540180825580915050600190039060005260206000209060030201600090919091909150600082015181600001556020820151816001019081610e2e9190611c35565b506040820151816002015550508080600101915050610d99565b5042600481905550603c82610e5d9190611d73565b42610e689190611a55565b6005819055505050565b60008082118015610e8857506002805490508211155b610ec7576040517f08c379a0000000000000000000000000000000000000000000000000000000008152600401610ebe90611e01565b60405180910390fd5b6002600183610ed691906118de565b81548110610ee757610ee6611912565b5b9060005260206000209060030201600201549050919050565b5080546000825590600052602060002090810190610f1e9190610f45565b50565b5080546000825560030290600052602060002090810190610f429190610f62565b50565b5b80821115610f5e576000816000905550600101610f46565b5090565b5b80821115610f9557600080820160009055600182016000610f849190610f99565b600282016000905550600301610f63565b5090565b508054610fa5906119b8565b6000825580601f10610fb75750610fd6565b601f016020900490600052602060002090810190610fd59190610f45565b5b50565b6000604051905090565b600080fd5b600080fd5b6000819050919050565b61100081610fed565b811461100b57600080fd5b50565b60008135905061101d81610ff7565b92915050565b60006020828403121561103957611038610fe3565b5b60006110478482850161100e565b91505092915050565b600081519050919050565b600082825260208201905092915050565b6000819050602082019050919050565b61108581610fed565b82525050565b600081519050919050565b600082825260208201905092915050565b60005b838110156110c55780820151818401526020810190506110aa565b60008484015250505050565b6000601f19601f8301169050919050565b60006110ed8261108b565b6110f78185611096565b93506111078185602086016110a7565b611110816110d1565b840191505092915050565b6000606083016000830151611133600086018261107c565b506020830151848203602086015261114b82826110e2565b9150506040830151611160604086018261107c565b508091505092915050565b6000611177838361111b565b905092915050565b6000602082019050919050565b600061119782611050565b6111a1818561105b565b9350836020820285016111b38561106c565b8060005b858110156111ef57848403895281516111d0858261116b565b94506111db8361117f565b925060208a019950506001810190506111b7565b50829750879550505050505092915050565b6000602082019050818103600083015261121b818461118c565b905092915050565b61122c81610fed565b82525050565b60006020820190506112476000830184611223565b92915050565b60008115159050919050565b6112628161124d565b811461126d57600080fd5b50565b60008135905061127f81611259565b92915050565b60006020828403121561129b5761129a610fe3565b5b60006112a984828501611270565b91505092915050565b6112bb8161124d565b82525050565b60006020820190506112d660008301846112b2565b92915050565b600073ffffffffffffffffffffffffffffffffffffffff82169050919050565b6000611307826112dc565b9050919050565b611317816112fc565b811461132257600080fd5b50565b6000813590506113348161130e565b92915050565b6000602082840312156113505761134f610fe3565b5b600061135e84828501611325565b91505092915050565b600080fd5b600080fd5b7f4e487b7100000000000000000000000000000000000000000000000000000000600052604160045260246000fd5b6113a9826110d1565b810181811067ffffffffffffffff821117156113c8576113c7611371565b5b80604052505050565b60006113db610fd9565b90506113e782826113a0565b919050565b600067ffffffffffffffff82111561140757611406611371565b5b611410826110d1565b9050602081019050919050565b82818337600083830152505050565b600061143f61143a846113ec565b6113d1565b90508281526020810184848401111561145b5761145a61136c565b5b61146684828561141d565b509392505050565b600082601f83011261148357611482611367565b5b813561149384826020860161142c565b91505092915050565b6000602082840312156114b2576114b1610fe3565b5b600082013567ffffffffffffffff8111156114d0576114cf610fe8565b5b6114dc8482850161146e565b91505092915050565b6114ee816112fc565b82525050565b600060208201905061150960008301846114e5565b92915050565b600082825260208201905092915050565b600061152b8261108b565b611535818561150f565b93506115458185602086016110a7565b61154e816110d1565b840191505092915050565b600060608201905061156e6000830186611223565b81810360208301526115808185611520565b905061158f6040830184611223565b949350505050565b600067ffffffffffffffff8211156115b2576115b1611371565b5b602082029050602081019050919050565b600080fd5b60006115db6115d684611597565b6113d1565b905080838252602082019050602084028301858111156115fe576115fd6115c3565b5b835b8181101561164557803567ffffffffffffffff81111561162357611622611367565b5b808601611630898261146e565b85526020850194505050602081019050611600565b5050509392505050565b600082601f83011261166457611663611367565b5b81356116748482602086016115c8565b91505092915050565b6000806040838503121561169457611693610fe3565b5b60006116a28582860161100e565b925050602083013567ffffffffffffffff8111156116c3576116c2610fe8565b5b6116cf8582860161164f565b9150509250929050565b7f42727568207768617420617265207520646f696e672c206765742061206c696660008201527f6500000000000000000000000000000000000000000000000000000000000000602082015250565b600061173560218361150f565b9150611740826116d9565b604082019050919050565b6000602082019050818103600083015261176481611728565b9050919050565b7f616b616c206b6520647573686d616e0000000000000000000000000000000000600082015250565b60006117a1600f8361150f565b91506117ac8261176b565b602082019050919050565b600060208201905081810360008301526117d081611794565b9050919050565b7f6b69746e6920626161722064616c656761206268616969000000000000000000600082015250565b600061180d60178361150f565b9150611818826117d7565b602082019050919050565b6000602082019050818103600083015261183c81611800565b9050919050565b7f526168756c2047616e646869206b6f2064616c20726861206268727576000000600082015250565b6000611879601d8361150f565b915061188482611843565b602082019050919050565b600060208201905081810360008301526118a88161186c565b9050919050565b7f4e487b7100000000000000000000000000000000000000000000000000000000600052601160045260246000fd5b60006118e982610fed565b91506118f483610fed565b925082820390508181111561190c5761190b6118af565b5b92915050565b7f4e487b7100000000000000000000000000000000000000000000000000000000600052603260045260246000fd5b600061194c82610fed565b91507fffffffffffffffffffffffffffffffffffffffffffffffffffffffffffffffff820361197e5761197d6118af565b5b600182019050919050565b7f4e487b7100000000000000000000000000000000000000000000000000000000600052602260045260246000fd5b600060028204905060018216806119d057607f821691505b6020821081036119e3576119e2611989565b5b50919050565b7f556e617574686f72697365642c20492077696c6c206b696c6c20796f75000000600082015250565b6000611a1f601d8361150f565b9150611a2a826119e9565b602082019050919050565b60006020820190508181036000830152611a4e81611a12565b9050919050565b6000611a6082610fed565b9150611a6b83610fed565b9250828201905080821115611a8357611a826118af565b5b92915050565b60008190508160005260206000209050919050565b60006020601f8301049050919050565b600082821b905092915050565b600060088302611aeb7fffffffffffffffffffffffffffffffffffffffffffffffffffffffffffffffff82611aae565b611af58683611aae565b95508019841693508086168417925050509392505050565b6000819050919050565b6000611b32611b2d611b2884610fed565b611b0d565b610fed565b9050919050565b6000819050919050565b611b4c83611b17565b611b60611b5882611b39565b848454611abb565b825550505050565b600090565b611b75611b68565b611b80818484611b43565b505050565b5b81811015611ba457611b99600082611b6d565b600181019050611b86565b5050565b601f821115611be957611bba81611a89565b611bc384611a9e565b81016020851015611bd2578190505b611be6611bde85611a9e565b830182611b85565b50505b505050565b600082821c905092915050565b6000611c0c60001984600802611bee565b1980831691505092915050565b6000611c258383611bfb565b9150826002028217905092915050565b611c3e8261108b565b67ffffffffffffffff811115611c5757611c56611371565b5b611c6182546119b8565b611c6c828285611ba8565b600060209050601f831160018114611c9f5760008415611c8d578287015190505b611c978582611c19565b865550611cff565b601f198416611cad86611a89565b60005b82811015611cd557848901518255600182019150602085019450602081019050611cb0565b86831015611cf25784890151611cee601f891682611bfb565b8355505b6001600288020188555050505b505050505050565b7f42686169206b7961206b61722072686120686169207475000000000000000000600082015250565b6000611d3d60178361150f565b9150611d4882611d07565b602082019050919050565b60006020820190508181036000830152611d6c81611d30565b9050919050565b6000611d7e82610fed565b9150611d8983610fed565b9250828202611d9781610fed565b91508282048414831517611dae57611dad6118af565b5b5092915050565b7f556c6c75206b6520706174746865000000000000000000000000000000000000600082015250565b6000611deb600e8361150f565b9150611df682611db5565b602082019050919050565b60006020820190508181036000830152611e1a81611dde565b905091905056fea26469706673582212200f4ee538513d849917a09162452c7139e855e8550a0d70673e98085a0a0ba8a964736f6c63430008180033",
  "linkReferences": {},
  "deployedLinkReferences": {}
}